{
  "_format": "hh-sol-artifact-1",
  "contractName": "WeatherOracle",
  "sourceName": "contracts/WeatherOracle.sol",
  "abi": [
    {
      "inputs": [
        {
          "internalType": "address",
          "name": "linkToken",
          "type": "address"
        },
        {
          "internalType": "address",
          "name": "chainlinkOracle",
          "type": "address"
        },
        {
          "internalType": "bytes32",
          "name": "_jobId",
          "type": "bytes32"
        },
        {
          "internalType": "uint256",
          "name": "_chainlinkFee",
          "type": "uint256"
        }
      ],
      "stateMutability": "nonpayable",
      "type": "constructor"
    },
    {
      "inputs": [],
      "name": "EmptyCity",
      "type": "error"
    },
    {
      "inputs": [
        {
          "internalType": "uint256",
          "name": "balance",
          "type": "uint256"
        },
        {
          "internalType": "uint256",
          "name": "required",
          "type": "uint256"
        }
      ],
      "name": "InsufficientLink",
      "type": "error"
    },
    {
      "inputs": [],
      "name": "MissingJobId",
      "type": "error"
    },
    {
      "inputs": [],
      "name": "MissingOracle",
      "type": "error"
    },
    {
      "inputs": [
        {
          "internalType": "address",
          "name": "owner",
          "type": "address"
        }
      ],
      "name": "OwnableInvalidOwner",
      "type": "error"
    },
    {
      "inputs": [
        {
          "internalType": "address",
          "name": "account",
          "type": "address"
        }
      ],
      "name": "OwnableUnauthorizedAccount",
      "type": "error"
    },
    {
      "inputs": [
        {
          "internalType": "bytes32",
          "name": "requestId",
          "type": "bytes32"
        }
      ],
      "name": "UnknownRequest",
      "type": "error"
    },
    {
      "anonymous": false,
      "inputs": [
        {
          "indexed": true,
          "internalType": "bytes32",
          "name": "id",
          "type": "bytes32"
        }
      ],
      "name": "ChainlinkCancelled",
      "type": "event"
    },
    {
      "anonymous": false,
      "inputs": [
        {
          "indexed": false,
          "internalType": "uint256",
          "name": "oldFee",
          "type": "uint256"
        },
        {
          "indexed": false,
          "internalType": "uint256",
          "name": "newFee",
          "type": "uint256"
        }
      ],
      "name": "ChainlinkFeeUpdated",
      "type": "event"
    },
    {
      "anonymous": false,
      "inputs": [
        {
          "indexed": true,
          "internalType": "bytes32",
          "name": "id",
          "type": "bytes32"
        }
      ],
      "name": "ChainlinkFulfilled",
      "type": "event"
    },
    {
      "anonymous": false,
      "inputs": [
        {
          "indexed": true,
          "internalType": "bytes32",
          "name": "id",
          "type": "bytes32"
        }
      ],
      "name": "ChainlinkRequested",
      "type": "event"
    },
    {
      "anonymous": false,
      "inputs": [
        {
          "indexed": true,
          "internalType": "address",
          "name": "previousOwner",
          "type": "address"
        },
        {
          "indexed": true,
          "internalType": "address",
          "name": "newOwner",
          "type": "address"
        }
      ],
      "name": "OwnershipTransferred",
      "type": "event"
    },
    {
      "anonymous": false,
      "inputs": [
        {
          "indexed": true,
          "internalType": "bytes32",
          "name": "requestId",
          "type": "bytes32"
        },
        {
          "indexed": false,
          "internalType": "string",
          "name": "city",
          "type": "string"
        },
        {
          "indexed": false,
          "internalType": "int256",
          "name": "temperature",
          "type": "int256"
        },
        {
          "indexed": false,
          "internalType": "string",
          "name": "description",
          "type": "string"
        },
        {
          "indexed": false,
          "internalType": "uint256",
          "name": "timestamp",
          "type": "uint256"
        }
      ],
      "name": "WeatherReported",
      "type": "event"
    },
    {
      "anonymous": false,
      "inputs": [
        {
          "indexed": true,
          "internalType": "bytes32",
          "name": "requestId",
          "type": "bytes32"
        },
        {
          "indexed": false,
          "internalType": "string",
          "name": "city",
          "type": "string"
        },
        {
          "indexed": true,
          "internalType": "address",
          "name": "requester",
          "type": "address"
        }
      ],
      "name": "WeatherRequested",
      "type": "event"
    },
    {
      "inputs": [],
      "name": "apiEndpoint",
      "outputs": [
        {
          "internalType": "string",
          "name": "",
          "type": "string"
        }
      ],
      "stateMutability": "view",
      "type": "function"
    },
    {
      "inputs": [],
      "name": "chainlinkFee",
      "outputs": [
        {
          "internalType": "uint256",
          "name": "",
          "type": "uint256"
        }
      ],
      "stateMutability": "view",
      "type": "function"
    },
    {
      "inputs": [
        {
          "internalType": "bytes32",
          "name": "requestId",
          "type": "bytes32"
        },
        {
          "internalType": "string",
          "name": "weatherData",
          "type": "string"
        }
      ],
      "name": "fulfill",
      "outputs": [],
      "stateMutability": "nonpayable",
      "type": "function"
    },
    {
      "inputs": [],
      "name": "jobId",
      "outputs": [
        {
          "internalType": "bytes32",
          "name": "",
          "type": "bytes32"
        }
      ],
      "stateMutability": "view",
      "type": "function"
    },
    {
      "inputs": [],
      "name": "owner",
      "outputs": [
        {
          "internalType": "address",
          "name": "",
          "type": "address"
        }
      ],
      "stateMutability": "view",
      "type": "function"
    },
    {
      "inputs": [],
      "name": "renounceOwnership",
      "outputs": [],
      "stateMutability": "nonpayable",
      "type": "function"
    },
    {
      "inputs": [
        {
          "internalType": "bytes32",
          "name": "",
          "type": "bytes32"
        }
      ],
      "name": "requestMeta",
      "outputs": [
        {
          "internalType": "string",
          "name": "city",
          "type": "string"
        },
        {
          "internalType": "address",
          "name": "requester",
          "type": "address"
        }
      ],
      "stateMutability": "view",
      "type": "function"
    },
    {
      "inputs": [
        {
          "internalType": "string",
          "name": "city",
          "type": "string"
        }
      ],
      "name": "requestWeather",
      "outputs": [
        {
          "internalType": "bytes32",
          "name": "requestId",
          "type": "bytes32"
        }
      ],
      "stateMutability": "payable",
      "type": "function"
    },
    {
      "inputs": [
        {
          "internalType": "string",
          "name": "newEndpoint",
          "type": "string"
        }
      ],
      "name": "setApiEndpoint",
      "outputs": [],
      "stateMutability": "nonpayable",
      "type": "function"
    },
    {
      "inputs": [
        {
          "internalType": "uint256",
          "name": "newFee",
          "type": "uint256"
        }
      ],
      "name": "setChainlinkFee",
      "outputs": [],
      "stateMutability": "nonpayable",
      "type": "function"
    },
    {
      "inputs": [
        {
          "internalType": "address",
          "name": "newOracle",
          "type": "address"
        }
      ],
      "name": "setChainlinkOracle",
      "outputs": [],
      "stateMutability": "nonpayable",
      "type": "function"
    },
    {
      "inputs": [
        {
          "internalType": "bytes32",
          "name": "newJobId",
          "type": "bytes32"
        }
      ],
      "name": "setJobId",
      "outputs": [],
      "stateMutability": "nonpayable",
      "type": "function"
    },
    {
      "inputs": [
        {
          "internalType": "address",
          "name": "newOwner",
          "type": "address"
        }
      ],
      "name": "transferOwnership",
      "outputs": [],
      "stateMutability": "nonpayable",
      "type": "function"
    },
    {
      "inputs": [
        {
          "internalType": "bytes32",
          "name": "",
          "type": "bytes32"
        }
      ],
      "name": "weatherReports",
      "outputs": [
        {
          "internalType": "string",
          "name": "city",
          "type": "string"
        },
        {
          "internalType": "int256",
          "name": "temperature",
          "type": "int256"
        },
        {
          "internalType": "string",
          "name": "description",
          "type": "string"
        },
        {
          "internalType": "uint256",
          "name": "timestamp",
          "type": "uint256"
        },
        {
          "internalType": "address",
          "name": "requester",
          "type": "address"
        }
      ],
      "stateMutability": "view",
      "type": "function"
    },
    {
      "inputs": [
        {
          "internalType": "address",
          "name": "to",
          "type": "address"
        },
        {
          "internalType": "uint256",
          "name": "amount",
          "type": "uint256"
        }
      ],
      "name": "withdrawLink",
      "outputs": [],
      "stateMutability": "nonpayable",
      "type": "function"
    },
    {
      "stateMutability": "payable",
      "type": "receive"
    }
  ],
  "bytecode": "0x608060405260016004553480156200001657600080fd5b50604051620025fd380380620025fd833981016040819052620000399162000186565b33806200006057604051631e4fbdf760e01b81526000600482015260240160405180910390fd5b6200006b81620000cf565b50600280546001600160a01b0319166001600160a01b038616179055620000928362000121565b6009829055600a8190556040805160608101909152602a808252620025d36020830139600b90620000c4908262000273565b50505050506200033f565b600680546001600160a01b038381166001600160a01b0319831681179093556040519116919082907f8be0079c531659141344cd1fd0a4f28419497f9722a3daafe3b4186f6b6457e090600090a35050565b6001600160a01b03811662000149576040516370cc4dc560e01b815260040160405180910390fd5b600380546001600160a01b0383166001600160a01b031990911617905550565b80516001600160a01b03811681146200018157600080fd5b919050565b600080600080608085870312156200019d57600080fd5b620001a88562000169565b9350620001b86020860162000169565b6040860151606090960151949790965092505050565b634e487b7160e01b600052604160045260246000fd5b600181811c90821680620001f957607f821691505b6020821081036200021a57634e487b7160e01b600052602260045260246000fd5b50919050565b601f8211156200026e57600081815260208120601f850160051c81016020861015620002495750805b601f850160051c820191505b818110156200026a5782815560010162000255565b5050505b505050565b81516001600160401b038111156200028f576200028f620001ce565b620002a781620002a08454620001e4565b8462000220565b602080601f831160018114620002df5760008415620002c65750858301515b600019600386901b1c1916600185901b1785556200026a565b600085815260208120601f198616915b828110156200031057888601518255948401946001909101908401620002ef565b50858210156200032f5787850151600019600388901b60f8161c191681555b5050505050600190811b01905550565b612284806200034f6000396000f3fe6080604052600436106100ec5760003560e01c80637a9b04121161008a578063c247afe411610059578063c247afe414610265578063c2939d9714610296578063f25ecd5d146102ac578063f2fde38b146102ce57600080fd5b80637a9b0412146101e75780637ac98be1146102075780638da5cb5b1461021d578063a284673f1461024557600080fd5b806337441996116100c65780633744199614610172578063508954f81461019257806354b7faae146101b2578063715018a6146101d257600080fd5b80630ab0e54f146100f85780630d86bf4a1461011a5780631829ca521461015157600080fd5b366100f357005b600080fd5b34801561010457600080fd5b506101186101133660046119b3565b6102ee565b005b34801561012657600080fd5b5061013a610135366004611a24565b610308565b604051610148929190611a8d565b60405180910390f35b61016461015f366004611b59565b6103b5565b604051908152602001610148565b34801561017e57600080fd5b5061011861018d366004611b8d565b6106e3565b34801561019e57600080fd5b506101186101ad366004611a24565b610a40565b3480156101be57600080fd5b506101186101cd366004611bef565b610a4d565b3480156101de57600080fd5b50610118610b76565b3480156101f357600080fd5b50610118610202366004611c19565b610b8a565b34801561021357600080fd5b50610164600a5481565b34801561022957600080fd5b506006546040516001600160a01b039091168152602001610148565b34801561025157600080fd5b50610118610260366004611a24565b610b9e565b34801561027157600080fd5b50610285610280366004611a24565b610beb565b604051610148959493929190611c34565b3480156102a257600080fd5b5061016460095481565b3480156102b857600080fd5b506102c1610d33565b6040516101489190611c82565b3480156102da57600080fd5b506101186102e9366004611c19565b610dc1565b6102f6610dfc565b600b610303828483611d17565b505050565b60076020526000908152604090208054819061032390611c95565b80601f016020809104026020016040519081016040528092919081815260200182805461034f90611c95565b801561039c5780601f106103715761010080835404028352916020019161039c565b820191906000526020600020905b81548152906001019060200180831161037f57829003601f168201915b505050600190930154919250506001600160a01b031682565b600081516000036103d95760405163a56ee67360e01b815260040160405180910390fd5b60006103ed6003546001600160a01b031690565b6001600160a01b031603610414576040516370cc4dc560e01b815260040160405180910390fd5b600954610434576040516333c5300560e11b815260040160405180910390fd5b60006104486002546001600160a01b031690565b6040516370a0823160e01b81523060048201526001600160a01b0391909116906370a0823190602401602060405180830381865afa15801561048e573d6000803e3d6000fd5b505050506040513d601f19601f820116820180604052508101906104b29190611dd7565b9050600a548110156104ee57600a546040516306f4dba760e41b81526104e5918391600401918252602082015260400190565b60405180910390fd5b600061050460095430633744199660e01b610e29565b90506105c06040518060400160405280600381526020016219d95d60ea1b815250600b805461053290611c95565b80601f016020809104026020016040519081016040528092919081815260200182805461055e90611c95565b80156105ab5780601f10610580576101008083540402835291602001916105ab565b820191906000526020600020905b81548152906001019060200180831161058e57829003601f168201915b505050505083610e4e9092919063ffffffff16565b6040805180820190915260048152636369747960e01b60208201526105e790829086610e4e565b610633604051806040016040528060048152602001630e0c2e8d60e31b8152506040518060400160405280600381526020016272617760e81b81525083610e4e9092919063ffffffff16565b61063f81600a54610e6c565b6040805180820182528681523360208083019190915260008481526007909152919091208151929550909181906106769082611df0565b5060209190910151600190910180546001600160a01b0319166001600160a01b03909216919091179055604051339084907f57b7f15c3d8e2616844c1a30ad34cd61e5d36ac0f425bc9439bc614fa2ad2fbd906106d4908890611c82565b60405180910390a35050919050565b60008281526005602052604090205482906001600160a01b0316331461075c5760405162461bcd60e51b815260206004820152602860248201527f536f75726365206d75737420626520746865206f7261636c65206f6620746865604482015267081c995c5d595cdd60c21b60648201526084016104e5565b60008181526005602052604080822080546001600160a01b03191690555182917f7cc135e0cebb02c3480ae5d74d377283180a2601f8f644edf7987b009316c63a91a260008381526007602052604080822081518083019092528054829082906107c590611c95565b80601f01602080910402602001604051908101604052809291908181526020018280546107f190611c95565b801561083e5780601f106108135761010080835404028352916020019161083e565b820191906000526020600020905b81548152906001019060200180831161082157829003601f168201915b5050509183525050600191909101546001600160a01b03908116602092830152908201519192501661088657604051637bbe34c960e01b8152600481018590526024016104e5565b60006108ae84604051806040016040528060048152602001636369747960e01b815250610e8f565b90506000808251116108c15782516108c3565b815b905060006108f4866040518060400160405280600b81526020016a74656d706572617475726560a81b815250611014565b90506000610925876040518060400160405280600b81526020016a3232b9b1b934b83a34b7b760a91b815250610e8f565b6040805160a0810182528581526020808201869052818301849052426060830152888101516001600160a01b0316608083015260008c81526008909152919091208151929350909181906109799082611df0565b5060208201516001820155604082015160028201906109989082611df0565b5060608201516003820155608090910151600490910180546001600160a01b0319166001600160a01b0390921691909117905560405188907f2e401731ceb81f2aaa55c615a658acc8ec0c47a497b4853a4df9b94f8b887f2990610a03908690869086904290611eaf565b60405180910390a2600088815260076020526040812090610a248282611925565b5060010180546001600160a01b03191690555050505050505050565b610a48610dfc565b600955565b610a55610dfc565b600080610a6a6002546001600160a01b031690565b6040516001600160a01b03868116602483015260448201869052919091169060640160408051601f198184030181529181526020820180516001600160e01b031663a9059cbb60e01b17905251610ac19190611eec565b6000604051808303816000865af19150503d8060008114610afe576040519150601f19603f3d011682016040523d82523d6000602084013e610b03565b606091505b5091509150818015610b2d575080511580610b2d575080806020019051810190610b2d9190611f08565b610b705760405162461bcd60e51b815260206004820152601460248201527313125392c81d1c985b9cd9995c8819985a5b195960621b60448201526064016104e5565b50505050565b610b7e610dfc565b610b886000611190565b565b610b92610dfc565b610b9b816111e2565b50565b610ba6610dfc565b600a80549082905560408051828152602081018490527f420bf73c4c5aa8de7a374933e00a4d85185b9fd2ccf26c89b49da86617878080910160405180910390a15050565b600860205260009081526040902080548190610c0690611c95565b80601f0160208091040260200160405190810160405280929190818152602001828054610c3290611c95565b8015610c7f5780601f10610c5457610100808354040283529160200191610c7f565b820191906000526020600020905b815481529060010190602001808311610c6257829003601f168201915b505050505090806001015490806002018054610c9a90611c95565b80601f0160208091040260200160405190810160405280929190818152602001828054610cc690611c95565b8015610d135780601f10610ce857610100808354040283529160200191610d13565b820191906000526020600020905b815481529060010190602001808311610cf657829003601f168201915b5050505060038301546004909301549192916001600160a01b0316905085565b600b8054610d4090611c95565b80601f0160208091040260200160405190810160405280929190818152602001828054610d6c90611c95565b8015610db95780601f10610d8e57610100808354040283529160200191610db9565b820191906000526020600020905b815481529060010190602001808311610d9c57829003601f168201915b505050505081565b610dc9610dfc565b6001600160a01b038116610df357604051631e4fbdf760e01b8152600060048201526024016104e5565b610b9b81611190565b6006546001600160a01b03163314610b885760405163118cdaa760e01b81523360048201526024016104e5565b610e3161195f565b610e3961195f565b610e4581868686611227565b95945050505050565b6080830151610e5d908361126d565b6080830151610303908261126d565b600354600090610e86906001600160a01b03168484611284565b90505b92915050565b60606000839050600083604051602001610ea99190611f31565b60405160208183030381529060405290506000610ec68383611317565b90506000198103610eeb57604051806020016040528060008152509350505050610e89565b6000825182610efa9190611f7e565b9050805b845181108015610f335750848181518110610f1b57610f1b611f91565b6020910101516001600160f81b031916601160f91b14155b15610f4a5780610f4281611fa7565b915050610efe565b6000610f568383611fc0565b6001600160401b03811115610f6d57610f6d611ab7565b6040519080825280601f01601f191660200182016040528015610f97576020820181803683370190505b50905060005b81518110156110075786610fb18286611f7e565b81518110610fc157610fc1611f91565b602001015160f81c60f81b828281518110610fde57610fde611f91565b60200101906001600160f81b031916908160001a90535080610fff81611fa7565b915050610f9d565b5098975050505050505050565b60008083905060008360405160200161102d9190611fd3565b6040516020818303038152906040529050600061104a8383611317565b905060001981036110615760009350505050610e89565b60008251826110709190611f7e565b905060008451821080156110a8575084828151811061109157611091611f91565b6020910101516001600160f81b031916602d60f81b145b156110be57506001816110ba81611fa7565b9250505b60005b855183101561116f5760008684815181106110de576110de611f91565b01602001516001600160f81b0319169050600360fc1b81108015906111115750603960f81b6001600160f81b0319821611155b1561115257611125603060f883901c612009565b60ff1661113383600a612022565b61113d9190612052565b91508361114981611fa7565b945050506110c1565b6001600160f81b03198116601760f91b0361116d575061116f565b505b8161117a5780611183565b6111838161207a565b9998505050505050505050565b600680546001600160a01b038381166001600160a01b0319831681179093556040519116919082907f8be0079c531659141344cd1fd0a4f28419497f9722a3daafe3b4186f6b6457e090600090a35050565b6001600160a01b038116611209576040516370cc4dc560e01b815260040160405180910390fd5b600380546001600160a01b0319166001600160a01b03831617905550565b61122f61195f565b61123f85608001516101006113f5565b50508284526001600160a01b03821660208501526001600160e01b031981166040850152835b949350505050565b61127a826003835161145a565b6103038282611561565b600454600090611295816001611f7e565b600455835160408086015160808701515191516000936320214ca360e11b936112cd9386938493923092918a91600191602401612096565b60408051601f198184030181529190526020810180516001600160e01b03166001600160e01b031990931692909217909152905061130d86838684611588565b9695505050505050565b600081516000148061132a575081518351105b156113385750600019610e89565b60005b825184516113499190611fc0565b81116113ea57600160005b84518110156113c85784818151811061136f5761136f611f91565b01602001516001600160f81b031916866113898386611f7e565b8151811061139957611399611f91565b01602001516001600160f81b031916146113b657600091506113c8565b806113c081611fa7565b915050611354565b5080156113d757509050610e89565b50806113e281611fa7565b91505061133b565b506000199392505050565b6040805180820190915260608152600060208201526114156020836120fe565b1561143d576114256020836120fe565b611430906020611fc0565b61143a9083611f7e565b91505b506020828101829052604080518085526000815290920101905290565b6017816001600160401b03161161147e57610b708360e0600585901b1683176116e6565b60ff816001600160401b0316116114ba576114a4836018611fe0600586901b16176116e6565b50610b70836001600160401b038316600161170b565b61ffff816001600160401b0316116114f7576114e1836019611fe0600586901b16176116e6565b50610b70836001600160401b038316600261170b565b63ffffffff816001600160401b0316116115365761152083601a611fe0600586901b16176116e6565b50610b70836001600160401b038316600461170b565b61154b83601b611fe0600586901b16176116e6565b50610b70836001600160401b038316600861170b565b604080518082019091526060815260006020820152610e8683846000015151848551611731565b6040516bffffffffffffffffffffffff193060601b1660208201526034810184905260009060540160408051808303601f1901815282825280516020918201206000818152600590925291812080546001600160a01b0319166001600160a01b038a1617905590925082917fb5e6e01e79f91267dc17b4e6314d5d4d03593d2ceee0fbb452b750bd70ea5af99190a2600254604051630200057560e51b81526001600160a01b0390911690634000aea09061164b90889087908790600401612120565b6020604051808303816000875af115801561166a573d6000803e3d6000fd5b505050506040513d601f19601f8201168201806040525081019061168e9190611f08565b6112655760405162461bcd60e51b815260206004820152602360248201527f756e61626c6520746f207472616e73666572416e6443616c6c20746f206f7261604482015262636c6560e81b60648201526084016104e5565b604080518082019091526060815260006020820152610e86838460000151518461181b565b604080518082019091526060815260006020820152611265848560000151518585611876565b604080518082019091526060815260006020820152825182111561175457600080fd5b60208501516117638386611f7e565b11156117965761179685611786876020015187866117819190611f7e565b6118f7565b611791906002612147565b61190e565b6000808651805187602083010193508088870111156117b55787860182525b505050602084015b602084106117f557805182526117d4602083611f7e565b91506117e1602082611f7e565b90506117ee602085611fc0565b93506117bd565b51815160001960208690036101000a019081169019919091161790525083949350505050565b604080518082019091526060815260006020820152836020015183106118505761185084856020015160026117919190612147565b835180516020858301018481535080850361186c576001810182525b5093949350505050565b604080518082019091526060815260006020820152602085015161189a8584611f7e565b11156118ae576118ae856117868685611f7e565b600060016118be84610100612242565b6118c89190611fc0565b90508551838682010185831982511617815250805184870111156118ec5783860181525b509495945050505050565b600081831115611908575081610e89565b50919050565b815161191a83836113f5565b50610b708382611561565b50805461193190611c95565b6000825580601f10611941575050565b601f016020900490600052602060002090810190610b9b919061199a565b6040805160a0810182526000808252602080830182905282840182905260608084018390528451808601909552845283015290608082015290565b5b808211156119af576000815560010161199b565b5090565b600080602083850312156119c657600080fd5b82356001600160401b03808211156119dd57600080fd5b818501915085601f8301126119f157600080fd5b813581811115611a0057600080fd5b866020828501011115611a1257600080fd5b60209290920196919550909350505050565b600060208284031215611a3657600080fd5b5035919050565b60005b83811015611a58578181015183820152602001611a40565b50506000910152565b60008151808452611a79816020860160208601611a3d565b601f01601f19169290920160200192915050565b604081526000611aa06040830185611a61565b905060018060a01b03831660208301529392505050565b634e487b7160e01b600052604160045260246000fd5b600082601f830112611ade57600080fd5b81356001600160401b0380821115611af857611af8611ab7565b604051601f8301601f19908116603f01168101908282118183101715611b2057611b20611ab7565b81604052838152866020858801011115611b3957600080fd5b836020870160208301376000602085830101528094505050505092915050565b600060208284031215611b6b57600080fd5b81356001600160401b03811115611b8157600080fd5b61126584828501611acd565b60008060408385031215611ba057600080fd5b8235915060208301356001600160401b03811115611bbd57600080fd5b611bc985828601611acd565b9150509250929050565b80356001600160a01b0381168114611bea57600080fd5b919050565b60008060408385031215611c0257600080fd5b611c0b83611bd3565b946020939093013593505050565b600060208284031215611c2b57600080fd5b610e8682611bd3565b60a081526000611c4760a0830188611a61565b8660208401528281036040840152611c5f8187611a61565b606084019590955250506001600160a01b03919091166080909101529392505050565b602081526000610e866020830184611a61565b600181811c90821680611ca957607f821691505b60208210810361190857634e487b7160e01b600052602260045260246000fd5b601f82111561030357600081815260208120601f850160051c81016020861015611cf05750805b601f850160051c820191505b81811015611d0f57828155600101611cfc565b505050505050565b6001600160401b03831115611d2e57611d2e611ab7565b611d4283611d3c8354611c95565b83611cc9565b6000601f841160018114611d765760008515611d5e5750838201355b600019600387901b1c1916600186901b178355611dd0565b600083815260209020601f19861690835b82811015611da75786850135825560209485019460019092019101611d87565b5086821015611dc45760001960f88860031b161c19848701351681555b505060018560011b0183555b5050505050565b600060208284031215611de957600080fd5b5051919050565b81516001600160401b03811115611e0957611e09611ab7565b611e1d81611e178454611c95565b84611cc9565b602080601f831160018114611e525760008415611e3a5750858301515b600019600386901b1c1916600185901b178555611d0f565b600085815260208120601f198616915b82811015611e8157888601518255948401946001909101908401611e62565b5085821015611e9f5787850151600019600388901b60f8161c191681555b5050505050600190811b01905550565b608081526000611ec26080830187611a61565b8560208401528281036040840152611eda8186611a61565b91505082606083015295945050505050565b60008251611efe818460208701611a3d565b9190910192915050565b600060208284031215611f1a57600080fd5b81518015158114611f2a57600080fd5b9392505050565b601160f91b81528151600090611f4e816001850160208701611a3d565b62111d1160e91b6001939091019283015250600401919050565b634e487b7160e01b600052601160045260246000fd5b80820180821115610e8957610e89611f68565b634e487b7160e01b600052603260045260246000fd5b600060018201611fb957611fb9611f68565b5060010190565b81810381811115610e8957610e89611f68565b601160f91b81528151600090611ff0816001850160208701611a3d565b61111d60f11b6001939091019283015250600301919050565b60ff8281168282160390811115610e8957610e89611f68565b80820260008212600160ff1b8414161561203e5761203e611f68565b8181058314821517610e8957610e89611f68565b808201828112600083128015821682158216171561207257612072611f68565b505092915050565b6000600160ff1b820161208f5761208f611f68565b5060000390565b6001600160a01b0389811682526020820189905260408201889052861660608201526001600160e01b03198516608082015260a0810184905260c0810183905261010060e082018190526000906120ef83820185611a61565b9b9a5050505050505050505050565b60008261211b57634e487b7160e01b600052601260045260246000fd5b500690565b60018060a01b0384168152826020820152606060408201526000610e456060830184611a61565b8082028115828204841417610e8957610e89611f68565b600181815b8085111561219957816000190482111561217f5761217f611f68565b8085161561218c57918102915b93841c9390800290612163565b509250929050565b6000826121b057506001610e89565b816121bd57506000610e89565b81600181146121d357600281146121dd576121f9565b6001915050610e89565b60ff8411156121ee576121ee611f68565b50506001821b610e89565b5060208310610133831016604e8410600b841016171561221c575081810a610e89565b612226838361215e565b806000190482111561223a5761223a611f68565b029392505050565b6000610e8683836121a156fea26469706673582212204946b935b9987cf9832ab0f0e3bf650744d6fa702934328d388c093c5c97bf6964736f6c6343000814003368747470733a2f2f6170692e776561746865726170692e636f6d2f76312f63757272656e742e6a736f6e",
  "linkReferences": {},
  "deployedLinkReferences": {}
}